{
  "contractName": "Election",
  "abi": [
    {
      "inputs": [],
      "payable": false,
      "stateMutability": "nonpayable",
      "type": "constructor"
    },
    {
      "anonymous": false,
      "inputs": [
        {
          "indexed": true,
          "internalType": "uint256",
          "name": "_candidateId",
          "type": "uint256"
        }
      ],
      "name": "votedEvent",
      "type": "event"
    },
    {
      "constant": true,
      "inputs": [
        {
          "internalType": "uint256",
          "name": "",
          "type": "uint256"
        }
      ],
      "name": "candidates",
      "outputs": [
        {
          "internalType": "uint256",
          "name": "id",
          "type": "uint256"
        },
        {
          "internalType": "string",
          "name": "name",
          "type": "string"
        },
        {
          "internalType": "uint256",
          "name": "voteCount",
          "type": "uint256"
        }
      ],
      "payable": false,
      "stateMutability": "view",
      "type": "function"
    },
    {
      "constant": true,
      "inputs": [],
      "name": "candidatesCount",
      "outputs": [
        {
          "internalType": "uint256",
          "name": "",
          "type": "uint256"
        }
      ],
      "payable": false,
      "stateMutability": "view",
      "type": "function"
    },
    {
      "constant": true,
      "inputs": [
        {
          "internalType": "address",
          "name": "",
          "type": "address"
        }
      ],
      "name": "voters",
      "outputs": [
        {
          "internalType": "bool",
          "name": "",
          "type": "bool"
        }
      ],
      "payable": false,
      "stateMutability": "view",
      "type": "function"
    },
    {
      "constant": false,
      "inputs": [
        {
          "internalType": "uint256",
          "name": "_candidateId",
          "type": "uint256"
        }
      ],
      "name": "ballotToVote",
      "outputs": [],
      "payable": false,
      "stateMutability": "nonpayable",
      "type": "function"
    }
  ],
  "bytecode": "0x608060405234801561001057600080fd5b506100556040518060400160405280600781526020017f5361746f7368690000000000000000000000000000000000000000000000000081525061009e60201b60201c565b6100996040518060400160405280600781526020017f566974616c696b0000000000000000000000000000000000000000000000000081525061009e60201b60201c565b6101bf565b60026000815480929190600101919050555060405180606001604052806002548152602001828152602001600081525060016000600254815260200190815260200160002060008201518160000155602082015181600101908051906020019061010992919061011a565b506040820151816002015590505050565b828054600181600116156101000203166002900490600052602060002090601f016020900481019282601f1061015b57805160ff1916838001178555610189565b82800160010185558215610189579182015b8281111561018857825182559160200191906001019061016d565b5b509050610196919061019a565b5090565b6101bc91905b808211156101b85760008160009055506001016101a0565b5090565b90565b610452806101ce6000396000f3fe608060405234801561001057600080fd5b506004361061004c5760003560e01c80632d35a8a2146100515780633477ee2e1461006f578063a3ec138d14610124578063c10b26f014610180575b600080fd5b6100596101ae565b6040518082815260200191505060405180910390f35b61009b6004803603602081101561008557600080fd5b81019080803590602001909291905050506101b4565b6040518084815260200180602001838152602001828103825284818151815260200191508051906020019080838360005b838110156100e75780820151818401526020810190506100cc565b50505050905090810190601f1680156101145780820380516001836020036101000a031916815260200191505b5094505050505060405180910390f35b6101666004803603602081101561013a57600080fd5b81019080803573ffffffffffffffffffffffffffffffffffffffff169060200190929190505050610276565b604051808215151515815260200191505060405180910390f35b6101ac6004803603602081101561019657600080fd5b8101908080359060200190929190505050610296565b005b60025481565b6001602052806000526040600020600091509050806000015490806001018054600181600116156101000203166002900480601f0160208091040260200160405190810160405280929190818152602001828054600181600116156101000203166002900480156102665780601f1061023b57610100808354040283529160200191610266565b820191906000526020600020905b81548152906001019060200180831161024957829003601f168201915b5050505050908060020154905083565b60006020528060005260406000206000915054906101000a900460ff1681565b6000803373ffffffffffffffffffffffffffffffffffffffff1673ffffffffffffffffffffffffffffffffffffffff16815260200190815260200160002060009054906101000a900460ff1615610355576040517f08c379a00000000000000000000000000000000000000000000000000000000081526004018080602001828103825260148152602001807f596f7527766520616c726561647920766f74656400000000000000000000000081525060200191505060405180910390fd5b60008111801561036757506002548111155b61037057600080fd5b60016000803373ffffffffffffffffffffffffffffffffffffffff1673ffffffffffffffffffffffffffffffffffffffff16815260200190815260200160002060006101000a81548160ff0219169083151502179055506001600082815260200190815260200160002060020160008154809291906001019190505550807ffff3c900d938d21d0990d786e819f29b8d05c1ef587b462b939609625b684b1660405160405180910390a25056fea265627a7a72315820a6342c64e301c53908a8ce8c758ec3266c2c8211ab33167917f571aa7b94daaf64736f6c63430005100032",
  "source": "pragma solidity ^0.5.16;\r\n\r\n/**\r\n * The Election contract\r\n */\r\ncontract Election {\r\n\r\n\t// Model a candidate\r\n\tstruct Candidate {\r\n\t\tuint id;\r\n\t\tstring name;\r\n\t\tuint voteCount;\r\n\t}\r\n\r\n\t// Store accounts that have voted\r\n\tmapping (address => bool) public voters;\r\n\r\n\t// Fetch & Store candidates\r\n\tmapping (uint => Candidate) public candidates;\r\n\r\n\t// Store candidates count\r\n\tuint public candidatesCount;\r\n\r\n\t// Voted event\r\n\tevent votedEvent(\r\n\t\tuint indexed _candidateId\r\n\t);\r\n\r\n\t// Constructor\r\n\tconstructor() public {\r\n\t\taddCandidate(\"Satoshi\");\r\n\t\taddCandidate(\"Vitalik\");\r\n\t}\r\n\r\n\t// Function to add a candidate to the system\r\n\tfunction addCandidate (string memory _name) private {\r\n\t\tcandidatesCount++;\r\n\t\tcandidates[candidatesCount] = Candidate(candidatesCount, _name, 0);\r\n\t}\r\n\r\n\t// Update candidate vote count\r\n\tfunction ballotToVote(uint _candidateId) public {\r\n\t\t// Require that they haven't voted before\r\n\t\trequire(!voters[msg.sender], \"You've already voted\");\r\n\r\n\t\t// Require a valid candidate\r\n\t\trequire(_candidateId > 0 && _candidateId <= candidatesCount);\r\n\r\n\t\t// Record that voter has voted\r\n\t\tvoters[msg.sender] = true;\r\n\r\n\t\t// Store ballot\r\n\t\tcandidates[_candidateId].voteCount++;\r\n\r\n\t\t// Trigger voted event\r\n\t\temit votedEvent(_candidateId);\r\n\t}\r\n}",
  "sourcePath": "C:/Users/IVAN/Desktop/Solidity/solidityElection/contracts/Election.sol",
  "compiler": {
    "name": "solc",
    "version": "0.5.16+commit.9c3226ce.Emscripten.clang"
  },
  "schemaVersion": "3.3.4",
  "updatedAt": "2021-04-17T12:43:34.698Z",
  "networkType": "ethereum",
  "devdoc": {
    "methods": {}
  },
  "userdoc": {
    "methods": {},
    "notice": "The Election contract"
  }
}